:100000000C942A000C9447000C9447000C94470071
:100010000C9447000C9447000C9447000C94470044
:100020000C9447000C9447000C9447000C94470034
:100030000C9447000C9447000C9447000C94470024
:100040000C9447000C9447000C9447000C94470014
:100050000C94470011241FBECFE5D8E0DEBFCDBF12
:1000600010E0A0E6B0E0EAE0FCE002C005900D92EE
:10007000A63CB107D9F710E0A6ECB0E001C01D9294
:10008000A93CB107E1F70E9449000C9403060C94C7
:1000900000000E94F9030E94BC020E9465010E94B8
:1000A00058000E94A3000E94C6000E940701F9CFD9
:1000B00081B38FEF81BB0895909A08959098089529
:1000C000929A089592980895919A08959198089512
:1000D0000F931F93CF9300E010E00E946B01C82F95
:1000E000863229F40E946B01C82F8632D9F38C2FF7
:1000F00080538A30E0F4C801880F991F000F111F48
:10010000000F111F000F111F080F191F8C2F90E0F7
:10011000C097080F191F80EC0E94E10380EC0E9439
:100120006102C8010E943603C632B9F207C0C33665
:10013000D9F7802FCF911F910F9108950E946B01E5
:10014000863259F2FBCF0E944F018093C70080E0B6
:1001500090E00E9411048093C8009091C700981706
:1001600028F00E9460000E94660004C00E946400A3
:100170000E9462008091C700853628F00E945C00D2
:100180000E94620008950E945E00089580E80E9427
:10019000610280E690E00E94CE0380E090E00E9441
:1001A00011040E94360380E20E94DB0283E40E9475
:1001B000DB0280EC0E9461028DE690E00E94CE039B
:1001C0008FEF95EAAEE081509040A040E1F700C08B
:1001D000000080E80E94E10380E80E9461028AE753
:1001E00090E00E94CE030E944F010E94360380E2FD
:1001F0000E94DB0283E40E94DB028FEF95EAAEE00F
:1002000081509040A040E1F700C0000008950E9496
:100210006B018D32910509F041C081E00E946102BD
:1002200080E80E94610288E890E00E94CE038FEF90
:1002300093EDA0E381509040A040E1F700C00000A2
:1002400080E80E94E10380E80E94610285E990E075
:100250000E94CE030E946B0186329105D9F70E945D
:100260006800682F8093C6008F3FC1F080E090E067
:1002700070E00E94090481E00E94610280E80E940F
:10028000610285EA90E00E94CE038FEF99E6A8E133
:1002900081509040A040E1F700C0000008950E9406
:1002A00000040E9400049C01B901882777FD809515
:1002B000982F0E94C90423E23BED49EF5EE30E94C0
:1002C00079050E949B04862F089580EF84BB85B337
:1002D0008F6085BB08958FEE85BB989909C08FEC20
:1002E00097E00197F1F700C000008091B5000895F4
:1002F00083B3869580FD09C08FEC97E00197F1F7F5
:1003000000C000008091B600089583B3869586955D
:1003100080FD09C08FEC97E00197F1F700C0000065
:100320008091B700089583B386958695869580FD64
:1003300009C08FEC97E00197F1F700C000008091B1
:10034000B80008958FEC97E00197F1F700C0000026
:100350008FED85BB989909C08FEC97E00197F1F775
:1003600000C000008091B900089583B3869580FD98
:1003700009C08FEC97E00197F1F700C00000809171
:10038000BA00089583B38695869580FD09C08FECE9
:1003900097E00197F1F700C000008091BB0008953D
:1003A00083B386958695869580FD09C08FEC97E08E
:1003B0000197F1F700C000008091BC0008958FEC18
:1003C00097E00197F1F700C000008FEB85BB98998B
:1003D00009C08FEC97E00197F1F700C00000809111
:1003E000BD00089583B3869580FD09C08FEC97E02A
:1003F0000197F1F700C000008091BE00089583B31B
:100400008695869580FD09C08FEC97E00197F1F7FE
:1004100000C000008091BF00089583B38695869543
:10042000869580FD09C08FEC97E00197F1F700C039
:1004300000008091C00008958FEC97E00197F1F7DC
:1004400000C000008FE785BB989909C08FEC97E04A
:100450000197F1F700C000008091C100089583B3B7
:10046000869580FD09C08FEC97E00197F1F700C0F9
:1004700000008091C200089583B38695869580FD23
:1004800009C08FEC97E00197F1F700C00000809160
:10049000C300089583B386958695869580FD09C02F
:1004A0008FEC97E00197F1F700C000008091C40045
:1004B00008958FEC97E00197F1F700C0000086E205
:1004C0000895C398882314F4C79A01C0C798982F39
:1004D000929596959695937090FF02C0C69A01C02A
:1004E000C698982F92959695977090FF02C0C59ADE
:1004F00001C0C598982F92959F7090FF02C0C49A32
:1005000001C0C498C29AEFECF7E03197F1F700C050
:100510000000C298EFECF7E03197F1F700C000005F
:10052000982F96959695969590FF02C0C79A01C010
:10053000C798982F9695969590FF02C0C69A01C0CD
:10054000C698982F969590FF02C0C59A01C0C5988D
:1005500080FF02C0C49A01C0C498C29A8FEC97E091
:100560000197F1F700C00000C298EFECF7E0319777
:10057000F1F700C00000089587B38C6F87BB83E05C
:100580000E94610282E00E94610288E20E94610290
:1005900088E00E94610281E00E94610286E00E9480
:1005A00061028CE00E9461028FE39CE90197F1F700
:1005B00000C000000895C39A882314F4C79A01C0AC
:1005C000C798982F929596959695937090FF02C034
:1005D000C69A01C0C698982F92959695977090FFED
:1005E00002C0C59A01C0C598982F92959F7090FF40
:1005F00002C0C49A01C0C498C29AEFECF7E03197E8
:10060000F1F700C00000C298EFECF7E03197F1F786
:1006100000C00000982F96959695969590FF02C081
:10062000C79A01C0C798982F9695969590FF02C0DB
:10063000C69A01C0C698982F969590FF02C0C59A99
:1006400001C0C59880FF02C0C49A01C0C498C29A74
:100650008FEC97E00197F1F700C00000C298EFEC33
:10066000F7E03197F1F700C000000895AF92BF9214
:10067000CF92DF92EF92FF920F931F93CF93DF936E
:1006800000D000D00F92CDB7DEB77C01B70188272C
:1006900077FD8095982F0E94C90420E030E040E269
:1006A00051E40E94330420E030E040E85FE30E9420
:1006B0002F0488230CF04DC016C0B701882777FDA2
:1006C0008095982F0E94C90420E030E040E251E478
:1006D0000E94330420E030E040E85FE30E942F04F2
:1006E00088233CF401C000E0FE01E00FF11DE1822F
:1006F0000CC0C701B5010E94DC05F60181936F01B2
:10070000E62EF72E0F5F0530C1F6CE01800F911D4A
:100710008C010E5F1F4F7E010894E11CF11CE094D8
:10072000F0940FC0891729F401C080E30E94DB0216
:1007300003C08F5F8134B1F7C701800F911F9923E8
:10074000ECF0F80192918F01992379F3905D81E3A8
:10075000E9CFC7016AE070E00E94DC058983E62EDC
:10076000F72ECC24DD246894C1F8CC0EDD1E01E008
:100770000F2EFAE0AF2EBB24F02D9FCF0F900F90DD
:100780000F900F900F90DF91CF911F910F91FF90DD
:10079000EF90DF90CF90BF90AF9008951F93CF93CD
:1007A000DF93C82FD92F10E01C3018F488810E94E5
:1007B000DB021F5F21961033B9F7DF91CF911F91B4
:1007C0000895CF93803849F40E946102CFE080E21F
:1007D0000E94DB02C150D9F70AC0803C41F40E945C
:1007E0006102CFE080E20E94DB02C150D9F7CF91D5
:1007F0000895379A3098319832983E9A3F980895E4
:10080000389A369A86B184FFFDCF349A84B195B177
:1008100008959CB391FDFDCF8EBB6DBBE29AE19A2A
:1008200008959CB391FDFDCF8EBBE09A8DB30895E2
:1008300081B5886081BD81B58E7F81BD81B58260C3
:1008400081BD81B58B7F81BD089581B5886081BDF3
:1008500081B5806181BD81B5877F81BD0895D4D088
:1008600008F481E008950CD00AC102D140F0F9D01B
:1008700030F021F45F3F19F0EBC0511134C1EEC0EC
:100880000FD198F39923C9F35523B1F3951B550B59
:10089000BB27AA2762177307840738F09F5F5F4F53
:1008A000220F331F441FAA1FA9F333D00E2E3AF094
:1008B000E0E830D091505040E695001CCAF729D0AE
:1008C000FE2F27D0660F771F881FBB1F26173707FD
:1008D0004807AB07B0E809F0BB0B802DBF01FF272D
:1008E00093585F4F2AF09E3F510568F0B1C0FBC09E
:1008F0005F3FECF3983EDCF3869577956795B79567
:10090000F7959F5FC9F7880F911D9695879597F981
:100910000895E1E0660F771F881FBB1F62177307FA
:100920008407BA0720F0621B730B840BBA0BEE1F0F
:1009300088F7E0950895BCD088F09F5790F0B92FC4
:100940009927B751A0F0D1F0660F771F881F991F24
:100950001AF0BA95C9F712C0B13081F0C3D0B1E036
:100960000895C0C0672F782F8827B85F39F0B93F46
:10097000CCF3869577956795B395D9F73EF4909526
:100980008095709561957F4F8F4F9F4F0895E894A4
:1009900009C097FB3EF490958095709561957F4FC7
:1009A0008F4F9F4F9923A9F0F92F96E9BB27939575
:1009B000F695879577956795B795F111F8CFFAF485
:1009C000BB0F11F460FF1BC06F5F7F4F8F4F9F4FB6
:1009D00016C0882311F096E911C0772321F09EE814
:1009E000872F762F05C0662371F096E8862F70E07A
:1009F00060E02AF09A95660F771F881FDAF7880F54
:100A00009695879597F90895990F0008550FAA0BA9
:100A1000E0E8FEEF16161706E807F907C0F0121611
:100A20001306E407F50798F0621B730B840B950B14
:100A300039F40A2661F0232B242B252B21F4089569
:100A40000A2609F4A140A6958FEF811D811D089506
:100A500097F99F6780E870E060E008959FEF80EC71
:100A6000089500240A941616170618060906089514
:100A700000240A9412161306140605060895092E7A
:100A80000394000C11F4882352F0BB0F40F4BF2BE9
:100A900011F460FF04C06F5F7F4F8F4F9F4F089529
:100AA00057FD9058440F551F59F05F3F71F047951F
:100AB000880F97FB991F61F09F3F79F08795089504
:100AC000121613061406551FF2CF4695F1DF08C023
:100AD000161617061806991FF1CF86957105610540
:100AE00008940895E894BB2766277727CB0197F9E8
:100AF00008950BD0C4CFB5DF28F0BADF18F09523E6
:100B000009F0A6CFABCF1124EECFCADFA0F3959F9B
:100B1000D1F3950F50E0551F629FF001729FBB27E4
:100B2000F00DB11D639FAA27F00DB11DAA1F649F90
:100B30006627B00DA11D661F829F2227B00DA11D43
:100B4000621F739FB00DA11D621F839FA00D611DC9
:100B5000221F749F3327A00D611D231F849F600DEA
:100B6000211D822F762F6A2F11249F5750408AF023
:100B7000E1F088234AF0EE0FFF1FBB1F661F771FAF
:100B8000881F91505040A9F79E3F510570F060CFEB
:100B9000AACF5F3FECF3983EDCF386957795679597
:100BA000B795F795E7959F5FC1F7FE2B880F911DCD
:100BB0009695879597F9089597FB092E07260AD0F1
:100BC00077FD04D00CD006D000201AF47095619502
:100BD0007F4F0895F6F7909581959F4F0895AA1B32
:100BE000BB1B51E107C0AA1FBB1FA617B70710F018
:100BF000A61BB70B881F991F5A95A9F7809590954A
:0A0C0000BC01CD010895F894FFCF68
:100C0A004D61782E54656D703A20202000466F722F
:100C1A0053657474696E673A2D0054656D702E20A1
:100C2A006E6F773A20202000454E5452204D41588D
:100C3A002E56616C00546F536176653A432020202A
:100C4A002020202000536176696E672E2E2E2020E8
:100C5A00202020200063303D2B3132332D343536AD
:060C6A00783738392F0035
:00000001FF
